:100000000C942A000C9447000C9447000C94470071
:100010000C9447000C9447000C9447000C94470044
:100020000C9447000C9447000C9447000C94470034
:100030000C9447000C9447000C9447000C94470024
:100040000C9447000C9447000C9447000C94470014
:100050000C94470011241FBECFE5D8E0DEBFCDBF12
:1000600010E0A0E6B0E0EAEBF0E002C005900D92EF
:10007000A036B107D9F710E0A0E6B0E001C01D92AC
:10008000A036B107E1F70E9449000C945B000C9484
:1000900000008CEF87BBB199FECFB09BFCCFC29A1A
:1000A0008FE39DE0A3E081509040A040E1F700C0C5
:0A00B0000000C298F0CFF894FFCFD3
:00000001FF
